:100000000C94D60A0C94010B0C94010B0C94010B6C
:100010000C94010B0C94010B0C94010B0C94010B30
:100020000C94010B0C94010B0C949F650C941964B7
:100030000C94010B0C94010B0C94010B0C94010B10
:100040000C94010B0C948D480C94010B0C94010B37
:100050000C94010B0C94010B0C94C4540C94E262AC
:100060000C94010B0C94010B0C94010B0C94010BE0
:100070000C94010B0C94010B0C94010B0C94010BD0
:100080000C94010B0C94010B0C94010B0C94010BC0
:100090000C94105F0C94010B084AD73B3BCE016EC9
:1000A00084BCBFFDC12F3D6C74319ABD56833DDACF
:1000B0003D00C77F11BED9E4BB4C3E916BAAAABEDE
:1000C000000000803F05A84CCDB2D44EB93836A907
:1000D000020C50B9918688083CA6AAAA2ABE000044
:1000E00000803F46696C616D656E74207365747441
:1000F000696E67733A2044697361626C65640020BD
:10010000204D32303020440046696C616D656E745C
:100110002073657474696E67733A0020430020444D
:100120000020490020204D333031205000504944F8
:100130002073657474696E67733A00205A00205901
:100140000020204D323036205800486F6D65206FFA
:10015000666673657420286D6D293A00204500207D
:100160005A0020580020420020540020204D3230F8
:1001700035205300416476616E6365642076617258
:100180006961626C65733A20533D4D696E20666506
:1001900065647261746520286D6D2F73292C20545D
:1001A0003D4D696E2074726176656C20666565648C
:1001B0007261746520286D6D2F73292C20423D6D6E
:1001C000696E696D756D207365676D656E742074F9
:1001D000696D6520286D73292C20583D6D61786903
:1001E0006D756D205859206A65726B20286D6D2FD2
:1001F00073292C20205A3D6D6178696D756D205AE8
:10020000206A65726B20286D6D2F73292C20204584
:100210003D6D6178696D756D2045206A65726B2052
:10022000286D6D2F73290020540020520020204D8E
:10023000323034205000416363656C6572617469CB
:100240006F6E733A20503D7072696E74696E672CE0
:1002500020523D7265747261637420616E64205433
:100260003D74726176656C00204500205A0020596B
:100270000020204D3230312058004D6178696D7575
:100280006D20416363656C65726174696F6E2028CF
:100290006D6D2F7332293A00204500205A002059F5
:1002A0000020204D3230332058004D6178696D7543
:1002B0006D2066656564726174657320286D6D2FAD
:1002C00073293A00204500205A0020590020204D73
:1002D0003932205800537465707320706572207530
:1002E0006E69743A0048617264636F6465642044A7
:1002F000656661756C742053657474696E677320EC
:100300004C6F61646564004572726F722077726928
:1003100074696E6720746F20454550524F4D21001F
:100320004572726F723A006563686F3A0020496ED9
:1003300076616C69642065787472756465722000FA
:100340005072696E7465722073746F70706564208A
:1003500064756520746F206572726F72732E20460B
:10036000697820746865206572726F7220616E64AE
:1003700020757365204D39393920746F207265738B
:10038000746172742E202854656D70657261747585
:1003900072652069732072657365742E20536574CD
:1003A000206974206166746572207265737461726D
:1003B00074696E6729005072696E74657220686195
:1003C0006C7465642E206B696C6C28292063616CE9
:1003D0006C656421004B494C4C45442E2000207430
:1003E0006F6F206C6F6E6720657874727573696FBC
:1003F0006E2070726576656E7465640020636F6C44
:100400006420657874727573696F6E20707265769A
:10041000656E746564006F6B00526573656E643A57
:100420002000FFFFFF000048430000484300004851
:10043000430000A0400000A0400000004000000079
:1004400000000000000000000000000000000000AC
:10045000000000000000004843000048430000483E
:10046000432569206D696E2C202569207365630022
:1004700044454255472044525952554E20454E411D
:10048000424C4544004445425547204543484F208F
:10049000454E41424C4544004B494C4C45442E206E
:1004A000002042403A0020403A00202F0020540013
:1004B000202F0020423A00202F0020543A006F6B7A
:1004C000003F0020573A0020453A00543A002042AD
:1004D0003A0020453A00543A004649524D5741529D
:1004E000455F4E414D453A4D61726C696E20312E2B
:1004F000302E332064657620534F555243455F4379
:100500004F44455F55524C3A687474703A2F2F200F
:100510002E2E2E2050524F544F434F4C5F56455273
:1005200053494F4E3A312E30204D414348494E45B4
:100530005F545950453A3344205072696E74657265
:100540002045585452554445525F434F554E543AF6
:100550003120555549443A30303030303030302D2C
:10056000303030302D303030302D303030302D3094
:1005700030303030303030303030300A00205A3AAD
:100580000020593A0020436F756E7420583A2000BD
:1005900020453A00205A3A0020593A00583A007A49
:1005A0005F6D696E3A2000795F6D696E3A20007860
:1005B0005F6D696E3A200053657474696E672054EC
:1005C000726176656C20416363656C657261746904
:1005D0006F6E3A200053657474696E6720526574BB
:1005E0007261637420416363656C65726174696FE5
:1005F0006E3A200053657474696E67205072696E9C
:100600007420416363656C65726174696F6E3A2032
:100610000053657474696E67205072696E7420614E
:100620006E642054726176656C20416363656C650D
:10063000726174696F6E3A2000546F6F2066617248
:100640002066726F6D207265666572656E636520E7
:10065000706F696E7400220A00556E6B6E6F776E54
:1006600020636F6D6D616E643A2022004B494C4CE3
:1006700045442E20005072696E7465722073746F49
:10068000707065642064756520746F206572726F88
:1006900072732E2046697820746865206572726FC7
:1006A0007220616E6420757365204D39393920746C
:1006B0006F20726573746172742E202854656D709A
:1006C00065726174757265206973207265736574F3
:1006D0002E205365742069742061667465722072DF
:1006E000657374617274696E6729004E6F204C697E
:1006F0006E65204E756D626572207769746820633F
:100700006865636B73756D2C204C617374204C6944
:100710006E653A20004E6F20436865636B73756D9C
:100720002077697468206C696E65206E756D6265EE
:10073000722C204C617374204C696E653A20006302
:100740006865636B73756D206D69736D6174636843
:100750002C204C617374204C696E653A20004C6902
:100760006E65204E756D626572206973206E6F74C0
:10077000204C617374204C696E65204E756D626506
:10078000722B312C204C617374204C696E653A20B9
:10079000004D313130002020506C616E6E65724228
:1007A000756666657242797465733A2000204672F8
:1007B0006565204D656D6F72793A20004A756E202F
:1007C0002038203230313500436F6D70696C6564BC
:1007D0003A2000286E6F6E652C2064656661756C2A
:1007E0007420636F6E6669672900207C20417574F0
:1007F000686F723A2000323031352D30362D30306E
:100800002031323A303000204C61737420557064CE
:10081000617465643A200020312E302E33206465E7
:1008200076004D61726C696E0020536F667477615B
:100830007265205265736574002057617463686443
:100840006F67205265736574002042726F776E2067
:100850006F757420526573657400204578746572F5
:100860006E616C20526573657400506F77657255C8
:1008700070007374617274002200656E7175657525
:1008800065696E6720220020746F6F206C6F6E6741
:1008900020657874727573696F6E20707265766505
:1008A0006E7465640020636F6C6420657874727583
:1008B00073696F6E2070726576656E74656400454D
:1008C000303A20005A3A2000593A2000583A200085
:1008D0004D53312C4D53322050696E730A0024F46D
:1008E00004D9201BC40C5C0E9804C4095F02650780
:1008F0007101F405F900FB04B30048048700C1034B
:1009000069005803550003034500BE023A00840203
:10091000310053022A002902250004022000E401CC
:100920001C00C8011900AF011700980114008401D0
:100930001300710110006101100051010E0043010C
:100940000D0036010B002B010B0020010B001501DF
:1009500009000C01090003010800FB000800F30076
:100960000800EB000700E4000600DE000600D800E7
:100970000600D2000600CC000500C7000500C2003A
:100980000500BD000400B9000400B5000400B1007A
:100990000400AD000400A9000400A5000300A200AB
:1009A00003009F0004009B000300980003009500D3
:1009B000020093000300900003008D0002008B00F2
:1009C000030088000200860002008400030081000A
:1009D00002007F0002007D0002007B00020079001F
:1009E000020077000100760002007400020072002D
:1009F0000100710002006F0002006D0001006C0038
:100A000002006A0001006900020067000100660040
:100A10000100650001006400020062000100610045
:100A20000100600001005F0002005D0001005C0049
:100A300001005B0001005A0001005900010058004C
:100A4000010057000100560001005500010054004C
:100A5000010053000000530001005200010051004A
:100A60000100500001004F0001004E0000004E0048
:100A700001004D0001004C0001004B0000004B0044
:100A800001004A0001004900010048000000480040
:100A9000010047000100460000004600010045003B
:100AA0000000450001004400010043000000430035
:100AB000010042000000420001004100000041002E
:100AC0000100400001003F0000003F0001003E0027
:100AD00000003E0001003D0000003D0001003C0020
:100AE00000003C0000003C0001003B0000003B0017
:100AF00001003A0000003A0001003900000039000E
:100B00000100380000003800000038000100370004
:100B100000003700010036000000360000003600FB
:100B200001003500000035000000350001003400F0
:100B300000003400000034000100330000003300E6
:100B400000003300010032000000320000003200DB
:100B500001003100000031000000310001003000D0
:100B6000000030000000300001002F0000002F00C6
:100B700000002F0000002F0001002E0000002E00BA
:100B800000002E0001002D0000002D0000002D00AF
:100B900000002D0001002C0000002C0000002C00A3
:100BA00000002C0001002B0000002B0000002B0097
:100BB00000002B0001002A0000002A0000002A008B
:100BC00000002A000100290000002900000029007F
:100BD0000000290000002900010028000000280072
:100BE0000000280000002800000028000100270065
:100BF0000000270000002700000027000000270059
:100C0000010026000000260000002600000026004B
:100C1000000026000100250000002500000025003E
:100C20000000250000002500000025000100240030
:100C30000000240000002400000024000000240024
:100C40000100230000002300000023000000230017
:100C50000000230000002300000023000100220008
:100C600000002200000022000000220000002200FC
:100C700000002200010021000000210000002100EE
:100C800000002100000021000000210000002100E0
:100C900001002000000020000000200000002000D3
:100CA00000002000000020000000200000002000C4
:100CB00001001F0000001F0000001F0000001F00B7
:100CC00000001F0000001F0000001F0001001E00A8
:100CD00000001E0000001E0000001E00000024F4A2
:100CE000D43050C38E20C2A24017828B7011127A6A
:100CF000910D816CD90AA861E108C7586607615156
:100D000043061E4B5D05C145A7041A411104093D68
:100D10009803713931034036DB0265339102D430D8
:100D20005402802E1D02632CEE01752AC501B028E5
:100D3000A001102781018F2564012B244B01E022A3
:100D40003401AC211F018D200D01801FFC00841E89
:100D5000ED00971DDF00B81CD200E61BC600201B6B
:100D6000BC00641AB200B219A8000A19A0006A18DF
:100D70009900D117910040178B00B51684003116E9
:100D80007E00B31579003A157300C7146F0058142C
:100D90006A00EE1366008813630025135E00C71215
:100DA0005B006C12570015125400C11151007011F4
:100DB0004F0021114B00D61049008D1047004610FE
:100DC000440002104200C00F4000800F3E00420F5E
:100DD0003C00060F3B00CB0E3800930E37005C0E34
:100DE0003500270E3400F30D3200C10D3100900D97
:100DF0003000600D2E00320D2D00050D2C00D90C99
:100E00002B00AE0C2900850C29005C0C2700350C4A
:100E100027000E0C2600E80B2400C40B2400A00BB6
:100E200023007D0B23005A0B2100390B2100180BE6
:100E30002000F80A1F00D90A1E00BB0A1E009D0AE6
:100E40001D00800A1D00630A1C00470A1B002C0AB3
:100E50001B00110A1A00F7091A00DD091900C4095C
:100E60001900AB091900920917007B0918006309E2
:100E700017004C09160036091600200916000A0949
:100E80001500F5081500E0081400CC081400B80897
:100E90001400A4081400900813007D0812006B08C9
:100EA00013005808120046081200340811002308E5
:100EB00011001208110001081100F0071000E007EE
:100EC0001000D0071000C0071000B0070F00A107E6
:100ED000100091070E0083070F0074070F006507CD
:100EE0000E0057070E0049070E003B070D002E07A6
:100EF0000E0020070D0013070D0006070D00F90670
:100F00000C00ED060D00E0060C00D4060C00C8062F
:100F10000C00BC060C00B0060C00A4060B009906E1
:100F20000C008D060B0082060B0077060B006C068A
:100F30000B0061060A0057060B004C060A00420629
:100F40000A0038060A002E060A0024060A001A06BD
:100F50000A001006090007060A00FD050900F4054D
:100F60000900EB050900E2050900D9050900D005D3
:100F70000900C7050900BE050900B5050800AD0553
:100F80000800A50509009C050800940508008C05CB
:100F90000800840508007C050800740508006C053D
:100FA0000700650508005D050700560508004E05A9
:100FB0000700470507004005080038050700310510
:100FC00007002A050700230507001C050600160573
:100FD00007000F0507000805060002050700FB04CF
:100FE0000600F5040700EE040600E8040600E2042B
:100FF0000700DB040600D5040600CF040600C90480
:101000000600C3040600BD040600B7040600B104D0
:101010000500AC040600A6040600A00405009B041D
:10102000060095040500900406008A040500850466
:101030000500800406007A040500750405007004AC
:1010400005006B04050066040500610405005C04EE
:10105000050057040500520405004D04050048042E
:101060000500430405003E0404003A04050035046D
:101070000500300404002C040500270404002304A8
:1010800005001E0404001A040400160405001104DF
:1010900004000D0404000904050004040400000415
:1010A0000400FC030400F8030400F4030400F0034C
:1010B0000400EC030400E8030400E4030400E0037C
:1010C0000400DC030400D8030400D4030400D003AC
:1010D0000400CC030400C8030300C5030300205A26
:1010E0003A0020593A0020583A00656E6473746FD4
:1010F0007073206869743A20004572723A204D4935
:101100004E54454D5020424544004D494E54454DA6
:101110005020747269676765726564004572723A3F
:10112000204D415854454D5020424544004D4158B2
:1011300054454D502074726967676572656400623A
:101140006564002C2073797374656D2073746F70FF
:1011500070656421204865617465725F49443A2076
:1011600000544845524D414C2052554E415741592B
:1011700000546865726D616C2052756E617761799B
:10118000004B494C4C45442E2000202D20496E76C2
:10119000616C6964206578747275646572206E751F
:1011A0006D62657220210070012C0190012701B051
:1011B000012201C0011D01F00118011002130130CC
:1011C000020E016002090190020401C002FF00004A
:1011D00003FA004003F5008003F000D003EB002089
:1011E00004E6007004E100E004DC004005D700C024
:1011F00005D2004006CD00D006C8008007C30030ED
:1012000008BE00F008B900C009B400B00AAF00B0D1
:101210000BAA00D00CA500000EA000500F9B00C030
:101220001096005012910000148C00C0158700B079
:10123000178200B0197D00D01B7800001E7300409B
:10124000206E0090226900F024640040275F009027
:10125000295A00E02B5500102E500020304B001072
:10126000324600E033410090353C001037370070C3
:10127000383200A0392D00B03A2800A03B2300608E
:101280003C1E00103D1900903D1400103E0F0070F0
:101290003E0A00C03E0500003F00004865617469D9
:1012A0006E67206661696C65640048656174696E8B
:1012B00067206661696C6564004572723A204D4929
:1012C0004E54454D50004D494E54454D502074727A
:1012D00069676765726564004572723A204D4158CE
:1012E00054454D50004D415854454D50207472693D
:1012F000676765726564004B6420002364656669F6
:101300006E65202044454641554C545F004B692092
:101310000023646566696E65202044454641554C4E
:10132000545F004B70200023646566696E65202061
:1013300044454641554C545F005049442041757422
:101340006F74756E652066696E69736865642120C7
:1013500050757420746865206C617374204B702C18
:10136000204B6920616E64204B6420636F6E737440
:10137000616E74732066726F6D2062656C6F77208A
:10138000696E746F20436F6E666967757261746908
:101390006F6E2E6800504944204175746F74756EED
:1013A00065206661696C6564212074696D656F757F
:1013B000740020403A006F6B20543A006F6B20425B
:1013C0003A00504944204175746F74756E6520660B
:1013D00061696C6564212054656D70657261747516
:1013E000726520746F6F206869676800204B643AEB
:1013F0002000204B693A2000204B703A2000204307
:101400006C61737369632050494420002054753A1D
:101410002000204B753A2000206D61783A20002092
:101420006D696E3A200020643A2000206269617381
:101430003A200001290229042908291029202940DD
:10144000298029012C022C012602260426082610B8
:1014500026202640268026402C802C0123022304AF
:10146000230823102320234023802301200220046B
:101470002008201020202040208020102C202C012B
:101480002F022F042F082F102F202F402F802F7E68
:10149000FE7EFD7EFB7EF77EEF7EDF7EBF7E7F00E1
:1014A000010000D3141200020000E5144300030001
:1014B00000281504010309042C1518020309044629
:1014C0001516030309045E150C0001C102018036E4
:1014D0000181361201000202000020C016830400C0
:1014E000010102030109024300020100C0320904A4
:1014F0000000010202010005240010010524010082
:1015000001042402060524060001070582030800E1
:101510004009040100020A00000007050302400020
:101520000007058402400000040309041803540066
:10153000650065006E007300790064007500690045
:101540006E006F000000160355005300420020009B
:10155000530065007200690061006C0000000C031C
:10156000310032003300340035000000494E464956
:101570004E4954594E414ECDCCCC3D0AD7233C1751
:10158000B7D13877CC2B329595E6241FB14F0A009E
:101590000020410000C84200401C4620BCBE4CCA8E
:1015A0001B0E5AAEC59D7400815E266911241FBEB4
:1015B000CFEFD0E2DEBFCDBF12E0A0E0B1E0EEEDB4
:1015C000FDED00E00BBF02C007900D92A43FB107F4
:1015D000D9F71BBE1CE0A4EFB2E001C01D92A530FC
:1015E000B107E1F715E1CCEAD5E104C02297FE018D
:1015F0000E94A76EC83AD107C9F70E941D660C94D5
:10160000ED6E0C940000A0E0B0E0E9E0FBE00C948B
:10161000BC6EEC015B016115710519F0FB01918352
:101620008083F9908F2D90E00E94AB6E892BC9F7D3
:10163000FDE2FF1621F4F990EE24E39405C02BE2BD
:10164000F21609F4F990EE248E0101501040C80101
:101650006CE675E143E050E062D2892BF9F48E012B
:101660000E5F1F4FC8016FE675E145E050E057D2AD
:10167000892B19F48E01095F1F4FA114B10419F0D1
:10168000F50111830083E0FC04C070E090E080E885
:1016900013C070E090E080E86FEF07C1C80164E715
:1016A00075E143E050E03BD2892B69F4A114B10409
:1016B00029F470E090E080EC6FE7F7C02296F50126
:1016C000D183C083F6CF8824992440E050E060E0C5
:1016D00070E0EF2DE053EA30A0F5F2E0EF2A8E2D16
:1016E00090E09C0128703070E2FE06C0232B79F553
:1016F0000894811C911C2BC0232B19F0089481089D
:101700009108DB01CA0112E0880F991FAA1FBB1FB5
:101710001A95D1F7480F591F6A1F7B1F440F551F99
:10172000661F771F4E0F511D611D711D483929E934
:10173000520729E9620729E1720748F084E0E82AA4
:1017400006C0EE3F31F4E3FC39C098E0E92AF99095
:10175000C0CFE53311F0E53189F529912D3219F427
:10176000E0E1EE2A05C02B3219F081E090E003C0E1
:10177000299182E090E0E22FE053EA3018F0C81B94
:10178000D90B1CC020E030E0FCE020383F075CF4BF
:10179000C901880F991F880F991F280F391F220F21
:1017A000331F2E0F311DE991E053EA3068F3E4FE58
:1017B00003C0309521953F4F820E931ECE2CDD2421
:1017C000E1FE07C0A114B10421F02197F501D183F6
:1017D000C083CB01BA010E94106B7B018C01F3E046
:1017E000CF22DD2423E0C216D10421F417FB10958B
:1017F00017F9109557016801C801B70120E030E0E2
:1018000040E050E00E94706A882309F44AC097FEC5
:101810000DC02BE8E22E25E1F22E909481949108E0
:101820009394C0E2D0E000E010E012C093EAE92E09
:1018300095E1F92EF6CFF701259135914591549117
:10184000C601B5010E94506D5B016C018C1A9D0AA6
:101850008C169D0684F7D595C7950F5F1F4F0630F0
:10186000110529F08CEF9FEFE80EF91EF1CFC501AD
:10187000D6017C018D018C2D880F8D2D881F8F3F07
:1018800051F0C601B50120E030E040E050E00E9498
:10189000706A882331F482E290E09093040C809384
:1018A000030C7E2D9F2D802F612F272F392F482F3E
:1018B000562FB901CA01CDB7DEB7ECE00C94D86E53
:1018C0002F923F925F926F927F928F929F92AF92F0
:1018D000BF92CF92DF92EF92FF920F931F93CF931D
:1018E000DF938C011B01EA016115710519F0FB0101
:1018F00091838083209749F0CE010297839728F047
:1019000020E030E040E050E0F6C0F801A1908F0107
:101910008A2D90E00E94AB6E892BB9F7FDE2AF16DD
:1019200031F4F801A1908F015524539407C0FBE2D4
:10193000AF1619F4F801A1908F015524209719F0E2
:10194000C031D105C1F4F0E3AF1679F4F80180811C
:10195000883711F0883549F4F801A1800E5F1F4FD8
:10196000F2E05F2AC0E1D0E006C0209721F480E3D6
:10197000A816E9F427C0C830D10531F1C930D10526
:1019800024F4C230D10531F50CC0CA30D10589F03C
:10199000C031D105F9F4C12CD12CE12CB8E0FB2EDB
:1019A00028C0C12CD12CE12CA0E4FA2E22C0CAE020
:1019B000D0E0FCECCF2EFCECDF2EFCECEF2EFCE0BC
:1019C000FF2E17C0C8E0D0E0C12CD12CE12CE0E103
:1019D000FE2E0FC09E01442737FD4095542F60E036
:1019E00070E080E090E80E94686EC901DA016C0145
:1019F0007D0120E030E040E050E060E03E018824DE
:101A000077FC8094982C70EDB72EBA0CE9E0EB15BA
:101A100070F48A2D81548A3118F499ECB92E06C0DD
:101A20008A2D81568A3150F589EAB82EBA0C8B2D51
:101A300090E08C179D0714F56F3FE1F0C216D306B6
:101A4000E406F506B0F0CA01B901A40193010E94B1
:101A5000226E9B01AC012B0D311D411D511D21300A
:101A6000F0E03F07F0E04F07F0E85F0710F461E0B7
:101A700001C06FEFF801A1908F01C5CF211431048F
:101A800081F0662331F001501040F1011183008391
:101A900008C051FE1AC002501040F10111830083AA
:101AA00014C067FF12C050FC05C02FEF3FEF4FEF8F
:101AB0005FE704C020E030E040E050E882E290E0E0
:101AC0009093040C8093030C16C050FE08C05095F0
:101AD0004095309521953F4F4F4F5F4F0CC057FFBA
:101AE0000AC082E290E09093040C8093030C2FEFE5
:101AF0003FEF4FEF5FE7B901CA01DF91CF911F912F
:101B00000F91FF90EF90DF90CF90BF90AF909F909C
:101B10008F907F906F905F903F902F900895FB0182
:101B2000DC014150504088F08D9181341CF08B35A0
:101B30000CF4805E659161341CF06B350CF4605ED2
:101B4000861B611171F3990B0895881BFCCFFB0173
:101B5000DC014150504048F005900D920020C9F73B
:101B600001C01D9241505040E0F70895FB0155918E
:101B70005523A9F0BF01DC014D9145174111E1F753
:101B800059F4CD010590002049F04D9140154111C7
:101B9000C9F3FB014111EFCF81E090E00197089577
:101BA000FC018191861721F08823D9F799270895A0
:101BB0003197CF010895FB01DC018D9101908019CF
:101BC0000110D9F3990B0895FB01DC0101900D92EE
:101BD0000020E1F70895AEE0B0E0E1EFFDE00C9405
:101BE000C46E0D891E898EE08C831A8309838FEF62
:101BF0009FE79E838D839E01275E3F4FCE01019616
:101C00006F89788DA9010AD02F813885020F131FA3
:101C1000F80110822E96E4E00C94E06EABE0B0E0A8
:101C2000E4E1FEE00C94B66E3C012B015A01FC018C
:101C300017821682838181FD03C06FEF7FEFB9C1E8
:101C40009AE0892E1E010894211C311CF301238186
:101C5000F20123FD859123FF81912F01882309F44F
:101C6000A5C1853239F423FD859123FF81912F0190
:101C7000853221F490E0B301B7D1E8CF982FFF244B
:101C8000EE249924FFE1FF15D0F09B3269F09C32DD
:101C900028F4903259F0933291F40EC09D3249F0FD
:101CA000903369F441E024C052E0F52A84E0F82A38
:101CB00028C098E0F92A25C0E0E1FE2A22C0F7FCFE
:101CC00029C0892F80538A3070F4F6FE05C0989C95
:101CD000902C1124980E15C0E89CE02C1124E80EDD
:101CE000F0E2FF2A0EC09E3229F4F6FC5FC140E408
:101CF000F42A07C09C3619F450E8F52A02C0983639
:101D000049F4F20123FD959123FF91912F0199232D
:101D100009F0B8CF892F8554833018F08052833072
:101D200038F444E050E0A40EB51E5FE359830FC0C1
:101D3000933631F0933779F0933509F052C01FC0D4
:101D4000F5018081898342E050E0A40EB51E610157
:101D500001E010E011C0F501C080D180F6FC03C0A5
:101D60006FEF7FEF02C0692D70E042E050E0A40EFB
:101D7000B51EC6012ED18C015FE7F52213C0F50117
:101D8000C080D180F6FC03C06FEF7FEF02C0692DE9
:101D900070E042E050E0A40EB51EC6010FD18C01E8
:101DA00050E8F52AF3FE06C018C080E290E0B301C7
:101DB0001BD1EA948E2D90E008171907B0F30DC0DF
:101DC000F601F7FC8591F7FE81916F0190E0B30178
:101DD0000BD1E110EA94015010400115110581F773
:101DE000E2C0943611F0993661F5F7FE08C0F501AE
:101DF000208131814281538184E090E00AC0F50165
:101E0000808191819C01442737FD4095542F82E0C9
:101E100090E0A80EB91E9FE6F92257FF09C0509521
:101E20004095309521953F4F4F4F5F4FE0E8FE2A98
:101E3000CA01B901A1012AE030E002D1D82ED2189E
:101E40003FC0953729F41F2D1F7E2AE030E01DC0CA
:101E50001F2D197F9F3661F0903720F4983509F0D7
:101E6000A5C00FC0903739F0983709F09FC004C063
:101E700028E030E00AC0106114FD146020E130E079
:101E800004C014FD166020E132E017FF08C0F50120
:101E9000608171818281938144E050E008C0F50146
:101EA00080819181BC0180E090E042E050E0A40E8E
:101EB000B51EA101C5D0D82ED2188FE7F82EF12279
:101EC000F6FE0BC05EEFF522D91438F4F4FE07C01D
:101ED000F2FC05C08FEEF82202C01D2D01C0192DA5
:101EE000F4FE0DC0FE01ED0DF11D8081803319F46B
:101EF00099EEF92208C01F5FF2FE05C003C08F2DC6
:101F0000867809F01F5F0F2DF3FC13C0F0FE0EC0A2
:101F10001E1510F09D2C0AC09D2C9E0C911A1E2D92
:101F200005C080E290E0B3015FD01F5F1E15C8F3CB
:101F300004C01E1510F4E11A01C0EE2404FF0EC007
:101F400080E390E0B30150D002FF1BC001FD03C04D
:101F500088E790E00EC088E590E00BC0802F86787F
:101F600081F001FF02C08BE201C080E2F7FC8DE24C
:101F700090E0B30139D005C080E390E0B30134D0E4
:101F80009A94D914C8F3DA94F101ED0DF11D808112
:101F900090E0B30129D0DD20B1F705C080E290E0E8
:101FA000B30122D0EA94EE20C9F750CEF301668146
:101FB0007781CB012B96E2E10C94D26EFC01059067
:101FC000615070400110D8F7809590958E0F9F1F3B
:101FD0000895FC016150704001900110D8F7809580
:101FE00090958E0F9F1F08950F931F93CF93DF93AC
:101FF0008C01EB018B8181FF1BC082FF0DC02E8104
:102000003F818C819D812817390764F4E881F9812B
:102010000193F983E88306C0E885F985802F099547
:10202000892B31F48E819F8101969F838E8302C01C
:102030000FEF1FEFC801DF91CF911F910F9108950E
:10204000FA01AA27283051F1203181F1E8946F93E9
:102050006E7F6E5F7F4F8F4F9F4FAF4FB1E03ED08F
:10206000B4E03CD0670F781F891F9A1FA11D680F2D
:10207000791F8A1F911DA11D6A0F711D811D911D60
:10208000A11D20D009F468943F912AE0269F1124D5
:102090003019305D3193DEF6CF010895462F477039
:1020A000405D4193B3E00FD0C9F7F6CF462F4F7094
:1020B000405D4A3318F0495D31FD4052419302D0F2
:1020C000A9F7EACFB4E0A695979587957795679598
:1020D000BA95C9F700976105710508959B01AC0198
:1020E0000A2E06945795479537952795BA95C9F7BF
:1020F000620F731F841F951FA01D0895DF93CF9358
:102100000F92CDB7DEB7FC016983A081B181129631
:102110002D913C911397BE016F5F7F4F41E050E0DE
:10212000F90109950F90CF91DF9108951F93CF93F7
:10213000DF93182F882329F5C7E2D3E004C089EF85
:102140009BE0DCDF2196FE0164916623C1F7C5EDBB
:10215000D2E004C089EF9BE0D1DF2196FE016491BB
:102160006623C1F789EF9BE06AE0C8DFC7E2D3E0EE
:1021700004C089EF9BE0C2DF2196FE0164916623D3
:10218000C1F74091030550910405609105057091D8
:1021900006058DEC92E00E946D1B40910705509161
:1021A00008056091090570910A058AEC92E00E9489
:1021B0006D1B40910B0550910C0560910D057091C0
:1021C0000E0587EC92E00E946D1B40910F05509127
:1021D0001005609111057091120584EC92E00E9447
:1021E0006D1B89EF9BE06AE089DF112329F5C7E2C7
:1021F000D3E004C089EF9BE081DF2196FE0164916A
:102200006623C1F7CAEAD2E004C089EF9BE076DF1B
:102210002196FE0164916623C1F789EF9BE06AE095
:102220006DDFC7E2D3E004C089EF9BE067DF219652
:10223000FE0164916623C1F74091F3045091F404C8
:102240006091F5047091F60481EA92E00E946D1BA2
:102250004091F7045091F8046091F9047091FA04E8
:102260008EE992E00E946D1B4091FB045091FC04AA
:102270006091FD047091FE048BE992E00E946D1B59
:102280004091FF0450910005609101057091020595
:1022900088E992E00E946D1B89EF9BE06AE02EDFE7
:1022A000112329F5C7E2D3E004C089EF9BE026DFC4
:1022B0002196FE0164916623C1F7CAE7D2E004C00B
:1022C00089EF9BE01BDF2196FE0164916623C1F735
:1022D00089EF9BE06AE012DFC7E2D3E004C089EF38
:1022E0009BE00CDF2196FE0164916623C1F74091CB
:1022F000130550911405609115057091160581E73D
:1023000092E070D54091170550911805609119051C
:1023100070911A058EE692E065D540911B055091AB
:102320001C0560911D0570911E058BE692E05AD543
:1023300040911F0550912005609121057091220563
:1023400088E692E04FD589EF9BE06AE0D7DE112363
:1023500029F5C7E2D3E004C089EF9BE0CFDE2196E8
:10236000FE0164916623C1F7C6E3D2E004C089EFA1
:102370009BE0C4DE2196FE0164916623C1F789EFDC
:102380009BE06AE0BBDEC7E2D3E004C089EF9BE0DC
:10239000B5DE2196FE0164916623C1F740912705C1
:1023A000509128056091290570912A058DE292E0EF
:1023B0000E946D1B40912B0550912C0560912D05BD
:1023C00070912E058AE292E00E946D1B40912F05CC
:1023D00050913005609131057091320587E292E0AD
:1023E0000E946D1B89EF9BE06AE088DE112329F5CE
:1023F000C7E2D3E004C089EF9BE080DE2196FE01B6
:1024000064916623C1F7C4E7D1E004C089EF9BE083
:1024100075DE2196FE0164916623C1F789EF9BE08A
:102420006AE06CDEC7E2D3E004C089EF9BE066DEC1
:102430002196FE0164916623C1F7409123055091D6
:10244000240560912505709126058BE691E00E9498
:102450006D1B40913F055091400560914105709181
:10246000420588E691E00E946D1B4091EF04509177
:10247000F0046091F1047091F20485E691E0B2D429
:1024800040913305509134056091350570913605C2
:1024900082E691E00E946D1B40913705509138050E
:1024A0006091390570913A058FE591E00E946D1BAE
:1024B00040913B0550913C0560913D0570913E0572
:1024C0008CE591E00E946D1B89EF9BE06AE016DECF
:1024D000112329F5C7E2D3E004C089EF9BE00EDEAB
:1024E0002196FE0164916623C1F7CAE4D1E004C0DD
:1024F00089EF9BE003DE2196FE0164916623C1F71C
:1025000089EF9BE06AE0FADDC7E2D3E004C089EF1F
:102510009BE0F4DD2196FE0164916623C1F74091B2
:102520000E0350910F03609110037091110381E429
:1025300091E00E946D1B4091120350911303609132
:102540001403709115038EE391E00E946D1B40917E
:1025500016035091170360911803709119038BE3D0
:1025600091E00E946D1B89EF9BE06AE0C7DD1123BB
:1025700029F5C7E2D3E004C089EF9BE0BFDD2196D7
:10258000FE0164916623C1F7CDE2D1E004C089EF7A
:102590009BE0B4DD2196FE0164916623C1F789EFCB
:1025A0009BE06AE0ABDDC7E2D3E004C089EF9BE0CB
:1025B000A5DD2196FE0164916623C1F74091410299
:1025C00050914202609143027091440284E291E092
:1025D0000E946D1B609145027091460280914702F6
:1025E000909148020E943D53AB01BC0181E291E011
:1025F0000E946D1B6091490270914A0280914B02CA
:1026000090914C020E944953AB01BC018EE191E0D4
:102610000E946D1B40914D0250914E0260914F02FD
:10262000709150028BE191E00E946D1B89EF9BE05D
:102630006AE064DD80910D03882309F434C011231E
:1026400029F5C7E2D3E004C089EF9BE057DD21966E
:10265000FE0164916623C1F7C8E0D1E004C089EFB0
:102660009BE04CDD2196FE0164916623C1F789EF62
:102670009BE06AE043DDC7E2D3E004C089EF9BE062
:102680003DDD2196FE0164916623C1F740910E0263
:1026900050910F0260911002709111028FEF90E043
:1026A0000E946D1B18C01123D1F4C7E2D3E004C00F
:1026B00089EF9BE023DD2196FE0164916623C1F73B
:1026C000C3EED0E004C089EF9BE018DD2196FE0147
:1026D00064916623C1F789EF9BE06AE00FDDDF912B
:1026E000CF911F9108950F931F93DF93CF93CDB791
:1026F000DEB7E0970FB6F894DEBF0FBECDBFDE01A8
:102700001196E3E8F2E080E101900D928150E1F74B
:10271000DE015196E3E7F2E080E101900D928150F5
:10272000E1F7DE019196E3E6F2E080E101900D929F
:102730008150E1F789819A81AB81BC818093030547
:1027400090930405A0930505B093060589899A899D
:10275000AB89BC898093F3049093F404A093F504AF
:10276000B093F60489A19AA1ABA1BCA180931305F3
:1027700090931405A0931505B09316058D819E8145
:10278000AF81B8858093070590930805A09309054C
:10279000B0930A058D899E89AF89B88D8093F7041F
:1027A0009093F804A093F904B093FA048DA19EA12C
:1027B000AFA1B8A58093170590931805A0931905AC
:1027C000B0931A0589859A85AB85BC8580930B05E6
:1027D00090930C05A0930D05B0930E05898D9A8DED
:1027E000AB8DBC8D8093FB049093FC04A093FD04FF
:1027F000B093FE0489A59AA5ABA5BCA580931B0543
:1028000090931C05A0931D05B0931E058D859E8594
:10281000AF85B88980930F0590931005A09311059B
:10282000B09312058D8D9E8DAF8DB8A18093FF045E
:1028300090930005A0930105B09302058DA59EA578
:10284000AFA5B8A980931F0590932005A0932105FB
:10285000B09322050E941D3480E090E8A9E8B4E41A
:102860008093270590932805A0932905B0932A0506
:1028700080E090E0AAE7B4E480932B0590932C05C8
:10288000A0932D05B0932E0580E090E8ABE3B5E46E
:1028900080932F0590933005A0933105B0933205B6
:1028A00020E030E040E050E0209323053093240501
:1028B000409325055093260580E29EE4A0E0B0E019
:1028C0008093EF049093F004A093F104B093F2048A
:1028D00020933F05309340054093410550934205B6
:1028E00080E090E0A0E1B1E480933305909334055B
:1028F000A0933505B09336058DEC9CECACECBEE3B3
:102900008093370590933805A0933905B0933A0525
:1029100080E090E0A0EAB0E480933B0590933C0512
:10292000A0933D05B0933E05209316033093170303
:102930004093180350931903209312033093130309
:10294000409314035093150320930E0330930F0309
:1029500040931003509311038AE999E9A1EBB1E484
:102960008093410290934202A0934302B0934402A9
:1029700061E77DE38AE89FE30E9437536093450255
:1029800070934602809347029093480260E070E0A3
:1029900084EE92E40E9443536093490270934A028A
:1029A00080934B0290934C0280E090E0A0E8BFE35C
:1029B00080934D0290934E02A0934F02B093500229
:1029C0000E94D84F10920D0380E090E0A0E4B0E4A4
:1029D00080930E0290930F02A0931002B093110205
:1029E000EFD107E213E005C089EF9BE087DB0F5FC3
:1029F0001F4FF80164916623B9F705EE12E005C098
:102A000089EF9BE07BDB0F5F1F4FF801649166232A
:102A1000B9F789EF9BE06AE071DBE0960FB6F894B6
:102A2000DEBF0FBECDBFCF91DF911F910F910895F3
:102A3000CF93DF93C9EDD4E004C089EF9BE05EDB68
:102A40002196FE0164916623C1F7DF91CF9108952D
:102A5000CF93DF930FB6F8948091F10B9091F20B26
:102A6000A091F30BB091F40B0FBE80932C039093C5
:102A70002D03A0932E03B0932F03C6E1D4E004C02E
:102A800089EF9BE03BDB2196FE0164916623C1F751
:102A900089EF9BE06AE032DBDF91CF910895EF92FE
:102AA000FF920F931F93CF93DF93EC01E0901A03F3
:102AB000F0901B0300911C0310911D036881798124
:102AC0008A819B81A80197010E94706A882324F45F
:102AD000E882F9820A831B83E0901E03F0901F03B3
:102AE00000912003109121036C817D818E819F8153
:102AF000A80197010E94706A882324F4EC82FD8269
:102B00000E831F836091220370912303809124031D
:102B10009091250320E030E040E050E00E9497696A
:102B20007B018C01688579858A859B85A801970141
:102B30000E94706A882324F4E886F9860A871B8736
:102B4000E0901602F09017020091180210911902FD
:102B5000688179818A819B81A80197010E947E6C9E
:102B6000181624F4E882F9820A831B83E0901A0283
:102B7000F0901B0200911C0210911D026C817D815E
:102B80008E819F81A80197010E947E6C181624F403
:102B9000EC82FD820E831F83E0901E02F0901F02E4
:102BA0000091200210912102688579858A859B8594
:102BB000A80197010E947E6C181624F4E886F98615
:102BC0000A871B87DF91CF911F910F91FF90EF90A4
:102BD00008956F927F928F929F92AF92BF92CF9201
:102BE000DF92EF92FF920F931F93CF93DF934C01ED
:102BF0003B018091F90183FD87C0FB01E080F180FA
:102C000002811381C801B701F40120813181428121
:102C100053810E9496695B016C0120E030E040E046
:102C200050E00E94706A882309F46EC0E091260388
:102C3000F0E0EE0FFF1FEE0FFF1FE655F54F60812E
:102C400071818281938120912302309124024091ED
:102C50002502509126020E94706A8823FCF4F40138
:102C6000E082F18202831383C7E2D3E004C089EFDC
:102C70009BE044DA2196FE0164916623C1F7CCEF14
:102C8000D3E004C089EF9BE039DA2196FE0164911C
:102C90006623C1F789EF9BE06AE030DAC601B5012F
:102CA0000E94DF6A97FF07C09095809570956195A7
:102CB0007F4F8F4F9F4F615971408040904024F16A
:102CC000F30180819181A281B381F401808391839A
:102CD000A283B383C7E2D3E004C089EF9BE00EDA9E
:102CE0002196FE0164916623C1F7CEEDD3E004C0C6
:102CF00089EF9BE003DA2196FE0164916623C1F718
:102D000089EF9BE06AE0FAD9DF91CF911F910F9193
:102D1000FF90EF90DF90CF90BF90AF909F908F90FB
:102D20007F906F900895779A10920403769A10928C
:102D30000503479A10920603439A0895EF92FF9273
:102D40000F931F937B018C0180910D03882349F120
:102D5000C801B70120E030E040E050E00E94706A16
:102D60008823F9F0C801B70120E030E040E05FE3DC
:102D70000E94506D7B018C012BED3FE049E450E453
:102D80000E94506DA80197010E94506D9B01AC01FB
:102D900060E070E080E89FE30E94776AE62F692F89
:102DA00004C0E0E070E080E86FE32E2F372F482F5B
:102DB000562FB901CA011F910F91FF90EF9008950E
:102DC00060910E0270910F02809110029091110299
:102DD000B5DF6093120270931302809314029093F4
:102DE00015020895EF92FF920F931F93CF93DF93F5
:102DF000EC017A018B0104C089EF9BE07FD9219619
:102E0000FE0164916623C1F789EF9BE0B801A70139
:102E10002AE000E00E943F66DF91CF911F910F9161
:102E2000FF90EF900895CF93DF93F8940E94E052C3
:102E3000779A10920403769A10920503479A10929B
:102E40000603439AC0E2D3E004C089EF9BE056D961
:102E50002196FE0164916623C1F7C6EBD3E004C05E
:102E600089EF9BE04BD92196FE0164916623C1F75F
:102E700089EF9BE06AE042D97894C5E0D0E006C0D3
:102E800068EC70E080E090E00E9422632197FFEF01
:102E9000CF3FDF07A9F7F894FFCF88E994E0C3CFCD
:102EA0008F929F92AF92BF92CF92DF92EF92FF925A
:102EB0000F931F93B8E4CB2EB3E0DB2EA8E0AA2E2D
:102EC000B12CAC0CBD1CFCE08F2E912C8C0C9D1CED
:102ED00020E030E040E752E40E94776A7B018C01F9
:102EE000C60124E030E0C20ED31EB601A501940154
:102EF000E6E2CE2EE3E0DE2E0E94ED3A1F910F9126
:102F0000FF90EF90DF90CF90BF90AF909F908F9009
:102F1000089588E493E0C3DD0FB6F8948091F10B37
:102F20009091F20BA091F30BB091F40B0FBE809334
:102F30002C0390932D03A0932E03B0932F0380E0D6
:102F400093E064E573E045DE6091F4027091F50270
:102F50008091F6029091F702209148033091490345
:102F600040914A0350914B030E94706A8823E9F410
:102F70006091F8027091F9028091FA029091FB023F
:102F800020914C0330914D0340914E0350914F03DB
:102F90000E94706A882349F460912B0270912C0280
:102FA00080912D0290912E021AC060910A027091B8
:102FB0000B02882777FD8095982F0E94126B209135
:102FC0002B0230912C0240912D0250912E020E9432
:102FD000506D20E030E048EC52E40E94776A60DFF8
:102FE000A4EFB2E0E8E4F3E080E101900D928150BB
:102FF000E1F70895CF93DF9389EF9BE00E94F76795
:10300000C9E1D4E004C089EF9BE078D82196FE01A5
:1030100064916623C1F740913A0350913B0360915C
:103020003C0370913D034F5F5F4F6F4F7F4F89EFC0
:103030009BE00E94CA6689EF9BE06AE05FD808DDEA
:10304000DF91CF910895FF920F931F93CF93DF935A
:103050008C01F62EC0E2D3E004C089EF9BE04ED88D
:103060002196FE0164916623C1F705C089EF9BE0BC
:1030700045D80F5F1F4FF80164916623B9F740915F
:103080003A0350913B0360913C0370913D0389EFFB
:103090009BE00E94CA6689EF9BE06AE02FD8FF2080
:1030A00009F0A8DF1092E7041092E604DF91CF91B7
:1030B0001F910F91FF900895682F772767FD7095F6
:1030C0008091DC049091DD040E94D00D9C019093CE
:1030D000DF048093DE0480E0232B09F081E0089573
:1030E000CF93DF93DB010D900020E9F71197A61B2A
:1030F000B70BEC01E881F9810280F381E02DAD018D
:103100000995DF91CF9108950F931F939C01220F92
:10311000331FF901E956FD4F0190F081E02DD901EF
:10312000AA0FBB1F1E161F06E4F48D0106501E4F8A
:10313000BF01882777FD8095982F0E94126B9B0115
:10314000AC01F80160817181828193810E94776A6C
:1031500060932B0270932C0280932D0290932E0289
:103160001EC0A650BE4F6D917D918D919C9120E027
:1031700030E040E251E40E94776A60932B02709342
:103180002C0280932D0290932E0289EF9BE060E049
:1031900071E0A6DF89EF9BE06AE00E947E101F913C
:1031A0000F910895CF93DF9389EF9BE060E471E086
:1031B00097DF89EF9BE06AE00E947E10CFEAD5E0BE
:1031C00005C089EF9BE00E947E102196FE0164916C
:1031D0006623B9F7639903C069E571E002C06EE543
:1031E00071E089EF9BE07CDF89EF9BE06AE00E9461
:1031F0007E10C7EAD5E005C089EF9BE00E947E10F3
:103200002196FE0164916623B9F7189903C069E518
:1032100071E002C06EE571E089EF9BE061DF89EF4C
:103220009BE06AE00E947E10CFE9D5E005C089EFFF
:103230009BE00E947E102196FE0164916623B9F7FF
:10324000649903C069E571E002C06EE571E089EF41
:103250009BE046DF89EF9BE06AE00E947E10DF91F1
:10326000CF910895CF93DF93C7E2D3E005C089EFF4
:103270009BE00E947E102196FE0164916623B9F7BF
:10328000C9E5D6E005C089EF9BE00E947E1021963B
:10329000FE0164916623B9F76091DA047091DB0452
:1032A00089EF9BE01DDFC6E5D6E005C089EF9BE016
:1032B0000E947E102196FE0164916623B9F7DF918A
:1032C000CF91089564EF72E0AB01485F5F4F9B01BF
:1032D000245F3F4FCB016C5F7F4F0C9465342F927E
:1032E0003F924F925F926F927F928F929F92AF9296
:1032F000BF92CF92DF92EF92FF920F931F93DF93D3
:10330000CF9300D000D0CDB7DEB79C838B838330C2
:10331000910508F001C1FC01EE5DFB4FA4906C012A
:10332000CC0CDD1CCC0CDD1C96012C503D4F3A839F
:1033300029830F2EF0E04F2EF0E05F2EF0E06F2E8D
:10334000F0E07F2EF02DF90140825182628273827B
:10335000B9DFF601EB5DFB4FE590F5900591149117
:103360006A2D772767FD7095882777FD8095982FC0
:103370000E94126B4B015C0138E4232E33E0332EA4
:103380002C0C3D1CC801B70120E030E040EC5FE3AD
:103390000E94506DA50194010E94506DF10160835F
:1033A000718382839383F601E650FE4F60817181C1
:1033B0008281938160932B0270932C0280932D0263
:1033C00090932E026DDD0E948048E981FA8140824F
:1033D00051826282738276DF80E00E947847F60134
:1033E000EF5CFB4FE590F59005911491C801B70192
:1033F0009058A50194010E94506DF1016083718382
:103400008283938360912B0270912C0280912D0214
:1034100090912E0245DD0E94804881E00E9478470D
:103420008B819C8171DEC801B701A80197010E94C0
:103430009769A50194010E94506DF1016083718329
:103440008283938360912B0270912C0280912D02D4
:1034500090912E0225DD0E948048F601E35CFB4F2F
:103460006591759185919491F601E25FFC4FE08042
:10347000F18002811381A80197010E949769E98177
:10348000FA816083718382839383F601E75BFB4F4C
:1034900065917591859194912AE1A22E23E0B22E37
:1034A000AC0CBD1CA80197010E949769F5016083CF
:1034B000718382839383F601EB5AFB4F659175917B
:1034C0008591949126E132E0C20ED31EA8019701A6
:1034D0000E949769F6016083718382839383F2DE91
:1034E000E981FA8180819181A281B381F101808398
:1034F0009183A283B38340922B0250922C0260925C
:103500002D0270922E020E9475472B813C812C5F08
:103510003C4F81E0F90180830F900F900F900F9046
:10352000CF91DF911F910F91FF90EF90DF90CF909F
:10353000BF90AF909F908F907F906F905F904F90D3
:103540003F902F900895CF92DF92EF92FF920F93CA
:103550001F93DF93CF93CDB7DEB76E970FB6F89476
:10356000DEBF0FBECDBF0FB6F8946091F10B709126
:10357000F20B8091F30B9091F40B0FBE6093340328
:103580007093350380933603909337032091300373
:10359000309131034091320350913303621B730B1E
:1035A000840B950B28EE33E040E050E00E94686EFB
:1035B000F22EE32ED42EC52E8DB79EB708970FB6E8
:1035C000F8949EBF0FBE8DBF0DB71EB70F5F1F4F84
:1035D000CE010196EDB7FEB79283818381E694E038
:1035E000F80193838283622F732F842F952F2CE30E
:1035F00030E040E050E00E94686EF801358324839B
:103600006F2D7E2D8D2D9C2D2CE330E040E050E081
:103610000E94686EF801778366830E94EB0D67E273
:10362000E62E63E0F62E8DB79EB708960FB6F89497
:103630009EBF0FBE8DBF07C089EF9BE00E947E102A
:103640000894E11CF11CF70164916623A9F789EF46
:103650009BE0BE016F5F7F4F43DD89EF9BE06AE037
:103660000E947E1080915305882341F110925305EA
:1036700080912603C82EDD247601EE0CFF1C88E91C
:103680009AE0E80EF91EF70160817181882777FDC5
:103690008095982F0E94126B209134023091350250
:1036A00040913602509137020E947E6C181634F415
:1036B000F70111821082C6010E9474526E960FB6F5
:1036C000F894DEBF0FBECDBFCF91DF911F910F9158
:1036D000FF90EF90DF90CF900895EF92FF920F93BD
:1036E0001F93CF93DF93EC017A018B0105C089EF23
:1036F0009BE00E947E102196FE0164916623B9F73B
:1037000089EF9BE0B801A70122E00E94DB66DF9110
:10371000CF911F910F91FF90EF900895CF93DF937A
:10372000CCE9D5E005C089EF9BE00E947E10219690
:10373000FE0164916623B9F74091F4025091F502BD
:103740006091F6027091F70289EF9BE022E00E94FF
:10375000DB66C8E9D5E005C089EF9BE00E947E10DA
:103760002196FE0164916623B9F74091F8025091C9
:10377000F9026091FA027091FB0289EF9BE022E06E
:103780000E94DB66C4E9D5E005C089EF9BE00E949A
:103790007E102196FE0164916623B9F74091FC02E8
:1037A0005091FD026091FE027091FF0289EF9BE053
:1037B00022E00E94DB66C0E9D5E005C089EF9BE00E
:1037C0000E947E102196FE0164916623B9F7409114
:1037D000000350910103609102037091030389EF8C
:1037E0009BE022E00E94DB66C5E8D5E005C089EFDA
:1037F0009BE00E947E102196FE0164916623B9F73A
:1038000080E00E9446480E94126B2091030530918F
:10381000040540910505509106050E94776AAB01A9
:10382000BC0189EF9BE022E00E94DB66C1E8D5E0A5
:1038300005C089EF9BE00E947E102196FE016491F5
:103840006623B9F781E00E9446480E94126B2091DE
:103850000705309108054091090550910A050E941D
:10386000776AAB01BC0189EF9BE022E00E94DB6636
:10387000CDE7D5E005C089EF9BE00E947E10219640
:10388000FE0164916623B9F782E00E9446480E94D7
:10389000126B20910B0530910C0540910D05509154
:1038A0000E050E94776AAB01BC0189EF9BE022E024
:1038B0000E94DB6689EF9BE06AE00E947E10DF9148
:1038C000CF9108952F923F924F925F926F927F9285
:1038D0008F929F92AF92BF92CF92DF92EF92FF9220
:1038E0000F931F93DF93CF93CDB7DEB768970FB6D3
:1038F000F894DEBF0FBECDBFDE011D96E4EFF2E00F
:103900008CE001900D928150E1F7DE011196EEE01E
:10391000F3E08CE001900D928150E1F71E010894D4
:10392000211C311CEDE04E2E512C4C0E5D1E8824C6
:10393000992466247724F401EC5FFC4F808188236E
:1039400009F487C0F201E080F18002811381F30164
:10395000E65EFC4FD301AA5EBD4F6081718182811A
:1039600093812D913D914D915C910E94976920E04A
:1039700030E040E05FE30E94506D9B01AC01C80164
:10398000B7010E947E6C18165CF00F2EF0E0AF2E8F
:10399000F0E0BF2EF0E0CF2EF0E0DF2EF02D0BC0D8
:1039A000F401EE0FFF1FEE0FFF1FE35CFB4FA5902E
:1039B000B590C590D490C801B701A60195010E94A9
:1039C00096697B018C0120E030E040EA51EC0E94D6
:1039D0007E6C18162CF5C801B70120E030E040EAF3
:1039E00051E40E94706A8823DCF4F10160817181E6
:1039F00082819381A80197010E949669F1016083F9
:103A0000718382839383F201A082B182C282D382C6
:103A100020C089EF9BE00E947E100F5F1F4F02C005
:103A200000E213E0F8016491662399F709E316E0D8
:103A300006C089EF9BE00E947E100F5F1F4FF801C8
:103A400064916623B1F789EF9BE06AE00E947E10E3
:103A500023C00894811C911C84E090E0280E391E3C
:103A6000680E791E480E591E93E08916910409F0DC
:103A700062CFA4EFB2E0FE013D968CE001900D9282
:103A80008150E1F7AEE0B3E0FE0131968CE00190A9
:103A90000D928150E1F716DC68960FB6F894DEBF00
:103AA0000FBECDBFCF91DF911F910F91FF90EF908F
:103AB000DF90CF90BF90AF909F908F907F906F904E
:103AC0005F904F903F902F9008952F923F924F928A
:103AD0005F926F927F928F929F92AF92BF92CF929E
:103AE000DF92EF92FF920F931F93DF93CF93CDB7A7
:103AF000DEB7CB56D0400FB6F894DEBF0FBECDBFB9
:103B0000A5969FAF8EAFA597A7967FAF6EAFA797ED
:103B1000A8964FAFA897DB016D917D918D919D91F6
:103B20006F96BFAFAEAF6F97A3966CAF7DAF8EAF02
:103B30009FAFA397A796AEADBFADA79714966D9113
:103B40007D918D919C9117976D966CAF7DAF8EAFE7
:103B50009FAF6D976091F4027091F5028091F6022B
:103B60009091F70269966CAF7DAF8EAF9FAF69976A
:103B7000A3962CAD3DAD4EAD5FADA3970E94976966
:103B800069AF7AAF8BAF9CAF8091F8029091F90248
:103B9000A091FA02B091FB0265968CAF9DAFAEAFDB
:103BA000BFAF6597BC01CD016D962CAD3DAD4EAD5F
:103BB0005FAD6D970E9497696DAB7EAB8FAB98AF91
:103BC0006091FC027091FD028091FE029091FF02D3
:103BD00061966CAF7DAF8EAF9FAF6197A596AEAD8E
:103BE000BFADA59718966D917D918D919C911B9776
:103BF00061962CAD3DAD4EAD5FAD61970E9496696B
:103C000069AB7AAB8BAB9CABA596AEADBFADA597C0
:103C10001C966D917D918D919C911F972D966CAF07
:103C20007DAF8EAF9FAF2D97609100037091010320
:103C3000809102039091030329966CAF7DAF8EAF04
:103C40009FAF2997A3968CAD9DADAEADBFADA397A9
:103C5000B0588DA79EA7AFA7B8AB6D966CAD7DADE4
:103C60008EAD9FAD6D97905869A77AA78BA79CA73B
:103C7000A596AEADBFADA5978D919D910D90BC91D0
:103C8000A02D25968CAF9DAFAEAFBFAF2597BC01E1
:103C9000CD0129AD3AAD4BAD5CAD0E9496693B01BB
:103CA0004C01A596AEADBFADA59714966D917D91D3
:103CB0008D919C91179721966CAF7DAF8EAF9FAF82
:103CC00021972DA93EA94FA958AD0E9496695B0185
:103CD0006C016DA57EA58FA598A9A60195010E94EE
:103CE000506D7B018C0169A57AA58BA59CA5A401CB
:103CF00093010E94506D9B01AC01C801B7010E9465
:103D000096691B012C016DA57EA58FA598A9A4011C
:103D100093010E94506D7B018C0169A57AA58BA54A
:103D20009CA5A60195010E94506D9B01AC01C801A4
:103D3000B7010E9497699B01AC01C201B1010E94C9
:103D40000A6A5B016C0120E030E040E050E00E9434
:103D5000706A882354F4C601B5012BED3FE049ECAD
:103D600050E40E9497695B016C01A896BFADA897CB
:103D7000BB2351F0C601B5012BED3FE049EC50E407
:103D80000E9496695B016C0169966CAD7DAD8EAD4C
:103D90009FAD699725962CAD3DAD4EAD5FAD259796
:103DA0000E94706A882321F565966CAD7DAD8EAD5D
:103DB0009FAD659721962CAD3DAD4EAD5FAD219782
:103DC0000E94706A8823A1F4C601B50120E030E0AA
:103DD00040E050E00E94706A882351F4C601B501AA
:103DE0002BED3FE049EC50E40E9497695B016C01C8
:103DF000A3966CAD7DAD8EAD9FADA3976D962CADAA
:103E00003DAD4EAD5FAD6D970E948B6C9B01AC01DB
:103E1000C601B5010E94506D29A93AA94BA95CA918
:103E20005F770E948B6C7B018C012FE632E143E8C7
:103E30005AE30E94706A87FDEBC1C801B7010E9476
:103E40004D6B0E94E46A78A76FA3672B21F4E1E031
:103E5000F0E0F8A7EFA32FA138A5B90180E090E02A
:103E60000E94106B7B018C01C601B501A80197016E
:103E70000E94776A6BA37CA38DA39EA369A97AA9EC
:103E80008BA99CA9A80197010E94776A6F8F78A3DC
:103E900089A39AA32D966CAD7DAD8EAD9FAD2D9768
:103EA00029962CAD3DAD4EAD5FAD29970E94966928
:103EB000A80197010E94776A6B8F7C8F8D8F9E8FF0
:103EC0006BA17CA18DA19EA120E030E040E05FEBE2
:103ED0000E94506D2BA13CA14DA15EA10E94506D8E
:103EE00020E030E040E85FE30E9497696F8B788FB5
:103EF000898F9A8F61966CAD7DAD8EAD9FAD6197C8
:103F000069877A878B879C8729968CAD9DADAEADEE
:103F1000BFAD29978D879E87AF87B88B60910A02C6
:103F200070910B02882777FD8095982F0E94126B65
:103F300020912B0230912C0240912D0250912E02A3
:103F40000E94506D20E030E040E752E40E94776A22
:103F500020E030E048EC52E40E94776AA9966FAF07
:103F6000A997AA967FAFAA97AB968FAFAB97AC965F
:103F70009FAFAC97A1E0B0E0BA8BA98B662410C1CB
:103F8000B8E1B6150CF446C06DA57EA58FA598A91D
:103F90002BA13CA14DA15EA10E94506D7B018C0123
:103FA00069A57AA58BA59CA52F89388D498D5A8D39
:103FB0000E94506D9B01AC01C801B7010E94976936
:103FC0007B018C016DA57EA58FA598A92F89388DC1
:103FD000498D5A8D0E94506D5B016C0169A57AA5CF
:103FE0008BA59CA52BA13CA14DA15EA10E94506D6B
:103FF0009B01AC01C601B5010E9496696DA77EA721
:104000008FA798AB6394C701D80189A79AA7ABA7DC
:10401000BCA765C0E989FA89BF0180E090E00E94F1
:10402000106B2BA13CA14DA15EA10E94506D7B01A4
:104030008C01C8010E94746A6B8B7C8B8D8B9E8B6C
:10404000B701C8010E94B36D3B014C01A796AEAD0C
:10405000BFADA797ED90FD900D911C9117FB1095AA
:1040600017F910956F96EEADFFAD6F9720803180F8
:1040700042805380C801B7012B893C894D895E89F4
:104080000E94506D5B016C01C201B101A40193015A
:104090000E94506D9B01AC01C601B5010E94976959
:1040A0006DA77EA78FA798ABC801B701A4019301A4
:1040B0000E94506D7B018C01C201B1012B893C89AA
:1040C0004D895E890E94506D9B01AC01C801B7010A
:1040D0000E94966969A77AA78BA79CA7662469ADF9
:1040E0007AAD8BAD9CAD2DA53EA54FA558A90E94DC
:1040F000976969837A838B839C836DA97EA98FA935
:1041000098AD29A53AA54BA55CA50E9497696D833A
:104110007E838F83988769857A858B859C852F8D93
:1041200038A149A15AA10E94976969877A878B872C
:104130009C876D857E858F8598892B8D3C8D4D8DD7
:104140005E8D0E9497696D877E878F87988BCE01E1
:1041500001960E944F15CE010196BE016B5F7F4F05
:10416000AE01475F5F4F9E01235F3F4FA996EFADC2
:10417000A997AA96FFADAA97AB96AFADAB97AC96B1
:10418000BFADAC977F018D01A6E2CA2EA3E0DA2E67
:104190000E94ED3A29893A892F5F3F4F3A8B298B4C
:1041A00069897A898FA198A56817790708F4E8CEFC
:1041B000A5964EAD5FADA597485F5F4FA5962EAD16
:1041C0003FADA597245F3F4FA5968EAD9FADA597B8
:1041D000DC011496BD01A996EFADA997AA96FFAD93
:1041E000AA97AB96AFADAB97AC96BFADAC977F013E
:1041F0008D01F6E2CF2EF3E0DF2E0E94ED3AA4EF20
:10420000B2E0E8E4F3E080E101900D928150E1F743
:10421000C559DF4F0FB6F894DEBF0FBECDBFCF91AB
:10422000DF911F910F91FF90EF90DF90CF90BF90A3
:10423000AF909F908F907F906F905F904F903F9046
:104240002F9008958091DE049091DF04019660E044
:1042500070E04AE050E00E94600CCB0108950F939B
:104260001F93CF93DF938C018091260380933903B2
:1042700084E50E945C18882309F43DC0E3DF809345
:1042800039038823C1F1C7E2D3E005C089EF9BE081
:104290000E947E102196FE0164916623B9F789EF92
:1042A0009BE06DE40E947E10A801662757FD609593
:1042B000762F89EF9BE00E94CA66CDE2D3E005C06D
:1042C00089EF9BE00E947E102196FE016491662397
:1042D000B9F74091390350E060E070E089EF9BE06E
:1042E0002AE000E00E943F6689EF9BE06AE00E94BE
:1042F0007E1081E001C080E0DF91CF911F910F918E
:104300000895CF93DF9389E690E0A9DF882309F031
:10431000FDC0CEEBD4E005C089EF9BE00E947E108B
:104320002196FE0164916623B9F7CAEBD4E005C07B
:1043300089EF9BE00E947E102196FE016491662326
:10434000B9F7E0913903F0E0EE0FFF1FEE0FFF1F0A
:10435000E655F54F408151816281738189EF9BE081
:1043600021E00E94DB66C7EBD4E005C089EF9BE04B
:104370000E947E102196FE0164916623B9F7E091B8
:104380003903F0E0EE0FFF1FE856F54F60817181B1
:10439000882777FD8095982F0E94126BAB01BC0196
:1043A00089EF9BE021E00E94DB66C3EBD4E005C00F
:1043B00089EF9BE00E947E102196FE0164916623A6
:1043C000B9F74091BC0A5091BD0A6091BE0A709144
:1043D000BF0A89EF9BE021E00E94DB66C0EBD4E0DE
:1043E00005C089EF9BE00E947E102196FE0164913A
:1043F0006623B9F76091A00A7091A10A882777FD1A
:104400008095982F0E94126BAB01BC0189EF9BE055
:1044100021E00E94DB66CDEAD4E005C089EF9BE095
:104420000E947E102196FE0164916623B9F789EF00
:104430009BE040E050E060E070E00E94CA6689EFD7
:104440009BE06AE30E947E104091AA0A5091AB0A59
:104450006091AC0A7091AD0A89EF9BE021E00E9467
:10446000DB66CAEAD4E005C089EF9BE00E947E10BB
:104470002196FE0164916623B9F76091980A7091C4
:10448000990A882777FD8095982F0E94126BAB01BF
:10449000BC0189EF9BE021E00E94DB66C6EAD4E024
:1044A00005C089EF9BE00E947E102196FE01649179
:1044B0006623B9F78091390390E00E94EF4FAC0179
:1044C000662757FD6095762F89EF9BE00E94CA66AC
:1044D000C1EAD4E005C089EF9BE00E947E102196DE
:1044E000FE0164916623B9F78FEF9FEF0E94EF4FB3
:1044F000AC01662757FD6095762F89EF9BE00E94FF
:10450000CA6689EF9BE06AE00E947E10DF91CF913E
:104510000895EF92FF921F93CF93DF9383E50E945C
:104520005C188823A9F18EDE7C0180E50E945C186E
:10453000882351F0F7FC08C08FEFE816F10409F06A
:104540001CF480DEEC0102C0CFEFDFEFEDE9F2E01A
:10455000808191818C179D07D9F0329682E0E33DEE
:10456000F807B1F7C031D10529F4F0922803E092A1
:10457000270302C0D7FD0CC08C2F0E94A560EC2F32
:10458000F0E00E2C0E94DE608C2FB7010E94536376
:10459000DF91CF911F91FF90EF900895CF93DF931C
:1045A00083E50E945C18882311F482E101C04ADE91
:1045B0008093F901C7E2D3E005C089EF9BE00E9438
:1045C0007E102196FE0164916623B9F78091F9016E
:1045D00080FF11C0C5E8D4E005C089EF9BE00E94D0
:1045E0007E102196FE0164916623B9F789EF9BE066
:1045F0006AE00E947E108091F90183FF1DC0C0E730
:10460000D4E005C089EF9BE00E947E102196FE0158
:1046100064916623B9F789EF9BE06AE00E947E10FF
:104620001092A10A1092A00A1092990A1092980A68
:1046300080E090E00E947452DF91CF9108958091C4
:10464000DE049091DF04019660E070E04AE050E003
:104650000C94600C0F931F93CF93DF930091DE04B3
:104660001091DF04C80165E470E00E94D00DEC01F8
:10467000C8010196209749F0188260E070E00E941E
:10468000030BE82F85E4888305C060E070E00E949A
:10469000030BE82F4E2F592FCA01DF91CF911F91A5
:1046A0000F91089583E50E945C188823D9F0D2DF2A
:1046B000AB01BC0140932705509328056093290561
:1046C00070932A0540932F05509330056093310570
:1046D0007093320581E196E000D889EF9BE06AE0B3
:1046E0000E947E1080E50E945C188823A1F0B2DF52
:1046F000AB01BC0140932705509328056093290521
:1047000070932A0584EF95E00E946D1B89EF9BE072
:104710006AE00E947E1082E50E945C188823A1F066
:1047200099DFAB01BC0140932B0550932C0560939E
:104730002D0570932E0585ED95E00E946D1B89EF88
:104740009BE06AE00E947E1084E50E945C1888234A
:10475000A1F080DFAB01BC0140932F0550933005E1
:10476000609331057093320587EB95E00E946D1BD5
:1047700089EF9BE06AE00C947E100895AF92BF929F
:10478000CF92DF92EF92FF920F931F93CF93DF931D
:1047900098E4A92E93E0B92EC4EFD2E000E010E037
:1047A000F801ED56FD4F80810E945C18882301F1CD
:1047B00051DF6B017C01F801E95FFC4F80818823A8
:1047C00049F48091E004882329F420E030E040E0BF
:1047D00050E004C0288139814A815B81C701B6015C
:1047E0000E949769F501608371838283938309C076
:1047F00088819981AA81BB81F50180839183A283FD
:10480000B3830F5F1F4F84E090E0A80EB91E24967B
:104810000430110529F686E40E945C18882399F07B
:1048200019DF7B018C0120E030E040E050E00E9485
:104830007E6C181644F4E0922B02F0922C02009346
:104840002D0210932E02DF91CF911F910F91FF90B7
:10485000EF90DF90CF90BF90AF900895FF920F93AD
:104860001F93DF93CF9300D0CDB7DEB789EF9BE0E6
:1048700040E950ED63E070E00E94446902E718E00F
:1048800006C089EF9BE00E947E100F5F1F4FF8016A
:1048900064916623B1F789EF9BE06AE00E947E1085
:1048A00007E213E006C089EF9BE00E947E100F5FD5
:1048B0001F4FF80164916623B1F784B7F82E80FF8B
:1048C00012C00AE618E006C089EF9BE00E947E1045
:1048D0000F5F1F4FF80164916623B1F789EF9BE0EA
:1048E0006AE00E947E10F1FE12C00AE518E006C0E0
:1048F00089EF9BE00E947E100F5F1F4FF8016491CB
:104900006623B1F789EF9BE06AE00E947E10F2FE19
:1049100012C009E418E006C089EF9BE00E947E10F7
:104920000F5F1F4FF80164916623B1F789EF9BE099
:104930006AE00E947E10F3FE12C009E318E006C090
:1049400089EF9BE00E947E100F5F1F4FF80164917A
:104950006623B1F789EF9BE06AE00E947E10F5FEC6
:1049600012C009E218E006C089EF9BE00E947E10A9
:104970000F5F1F4FF80164916623B1F789EF9BE049
:104980006AE00E947E1014BE02E218E006C089EFC1
:104990009BE00E947E100F5F1F4FF8016491662319
:1049A000B1F707E118E006C089EF9BE00E947E1096
:1049B0000F5F1F4FF80164916623B1F789EF9BE009
:1049C0006AE00E947E1007E213E006C089EF9BE0D8
:1049D0000E947E100F5F1F4FF80164916623B1F7AC
:1049E00007E018E006C089EF9BE00E947E100F5F91
:1049F0001F4FF80164916623B1F706EF17E006C078
:104A000089EF9BE00E947E100F5F1F4FF8016491B9
:104A10006623B1F70AEE17E006C089EF9BE00E941B
:104A20007E100F5F1F4FF80164916623B1F703ED0D
:104A300017E006C089EF9BE00E947E100F5F1F4FBA
:104A4000F80164916623B1F789EF9BE06AE00E9468
:104A50007E1008EC17E006C089EF9BE00E947E10F4
:104A60000F5F1F4FF80164916623B1F70CEB17E05D
:104A700006C089EF9BE00E947E100F5F1F4FF80178
:104A800064916623B1F789EF9BE06AE00E947E1093
:104A900007E213E006C089EF9BE00E947E100F5FE3
:104AA0001F4FF80164916623B1F70DEA17E006C0C5
:104AB00089EF9BE00E947E100F5F1F4FF801649109
:104AC0006623B1F720915A0230915B02CE01019624
:104AD0002115310519F485509C4002C0821B930BAF
:104AE0009A83898349815A81662757FD6095762F7D
:104AF00089EF9BE00E94CA6606E917E006C089EFCD
:104B00009BE00E947E100F5F1F4FF80164916623A7
:104B1000B1F789EF9BE040ED54E060E070E00E9467
:104B2000CA6689EF9BE06AE00E947E100E947313C0
:104B300080E00E94961080E197E220E931E0F901DF
:104B40003197F1F70197D9F70E94D3580E942D3879
:104B50000E94A9470F900F90CF91DF911F910F9165
:104B6000FF9008950F931F93CF93DF93FC018081F3
:104B70008B3309F460C08091420390914303049702
:104B80000CF059C02091E9043091EA0480E690E0ED
:104B9000289F8001299F100D389F100D1124065A5F
:104BA0001C4FC801BF010E94E40DC7E2D3E005C05D
:104BB00089EF9BE00E947E102196FE01649166239E
:104BC000B9F7CAE7D8E005C089EF9BE00E947E10E4
:104BD0002196FE0164916623B9F789EF9BE0B80145
:104BE0000E947018C8E7D8E005C089EF9BE00E94DA
:104BF0007E102196FE0164916623B9F789EF9BE050
:104C00006AE00E947E108091E9049091EA04019686
:104C100064E070E00E94556E9093EA048093E9048A
:104C200080914203909143030196909343038093B4
:104C3000420381E001C080E0DF91CF911F910F918D
:104C40000895EF92FF920F931F93DF93CF93CDB709
:104C5000DEB76E970FB6F894DEBF0FBECDBF609182
:104C60002A0370912B036115710511F480E036C0A1
:104C70008E010F5F1F4FC8014DE150E00E94A70D4C
:104C80001E8EEE24FF24C801FC01EE0DFF1D1081D5
:104C9000112331F01A3021F00894E11CF11CF4CFFB
:104CA000CE010196FC01EE0DFF1D10825BDF882313
:104CB000A1F0112371F00894E11CF11C80912A03EA
:104CC00090912B038E0D9F1D90932B0380932A03AD
:104CD00004C010922B0310922A0381E06E960FB647
:104CE000F894DEBF0FBECDBFCF91DF911F910F9122
:104CF000FF90EF9008958F929F92AF92BF92CF92C4
:104D0000DF92EF92FF920F931F93CF93DF9399DF80
:104D1000882309F43EC168C14D3041F02091E6047A
:104D20003091E7042F3531050CF4E2C01092E8040D
:104D30008091E6049091E704009709F455C1A09092
:104D4000E904B090EA04A89CF001A99CF00DB89C7D
:104D5000F00D11243AE5C32E33E0D32ECE0EDF1E24
:104D6000E80FF91FE65AFC4F1082C6016EE470E0AE
:104D70000E94D00DEC01C6016AE270E00E94D00DE5
:104D80008C01209709F462C0CE01019660E070E0CA
:104D90004AE050E00E94600C6093EB047093EC04D6
:104DA0008093ED049093EE0420913A0330913B03FD
:104DB00040913C0350913D032F5F3F4F4F4F5F4F5A
:104DC000621773078407950709F400C1C60161E9FA
:104DD00077E00E94B60D892B09F0F8C08EE597E0C8
:104DE0001DC0FE268F5FF901E80FF11DE65AFC4F4A
:104DF000E081EA32B1F7C801019660E070E04AE074
:104E000050E00E94600C2F2D30E040E050E062172F
:104E100073078407950749F08FE397E061E00E94EC
:104E20002318E2C085E197E0F9CF8091EB049091DF
:104E3000EC04A091ED04B091EE0480933A039093BA
:104E40003B03A0933C03B0933D0306C0009721F0C1
:104E50008BEE96E060E0E3CF8091F801882311F5B6
:104E6000C60167E470E00E94D00D0097D9F001966A
:104E700060E070E04AE050E00E94600C6430710530
:104E800088F4C5E7D6E005C089EF9BE00E947E105C
:104E90002196FE0164916623B9F789EF9BE06AE0F1
:104EA0000E947E10C60168E671E00E94DB0D00974B
:104EB00021F48CE696E00E9413178091E90490910A
:104EC000EA04019664E070E00E94556E9093EA0453
:104ED0008093E9048091420390914303019690935B
:104EE0004303809342031092E7041092E60456C0F5
:104EF0004C3581F589EF9BE00E948F6718161906E3
:104F00000CF04CC0809142039091430304970CF045
:104F100045C089EF9BE00E94C8678093E5044091FB
:104F2000E6045091E7042091E9043091EA04289DB9
:104F3000F001299DF00D389DF00D1124E40FF51FAF
:104F4000E65AFC4F80834F5F5F4F5093E7044093D6
:104F5000E60424C04B3311F4E092E8048091E804A5
:104F60008823E1F48091E9049091EA04889DF0019E
:104F7000899DF00D989DF00D1124E20FF31FE65A64
:104F8000FC4F40832F5F3F4F3093E7042093E604AC
:104F900005C020E6822E912CEE24E39480914203FA
:104FA00090914303049704F589EF9BE00E948F677B
:104FB00018161906CCF489EF9BE00E94C867482FA9
:104FC0008093E5048A3009F0A7CEB0CE0115110513
:104FD00009F428CFFF2480E0A89C9001A99C300D03
:104FE000B89C300D1124FFCEDF91CF911F910F910E
:104FF000FF90EF90DF90CF90BF90AF909F908F90F9
:105000000895DF92EF92FF920F931F93D82E809115
:1050100042039091430303970CF46DDE0FB6F894AE
:10502000E090F10BF090F20B0091F30B1091F40B68
:105030000FBE2091440330914503409146035091A7
:1050400047032115310541055105A9F080912C0335
:1050500090912D03A0912E03B0912F03280F391F9B
:105060004A1F5B1F2E153F054007510720F485EDB1
:1050700093E00E941317209127023091280240915B
:10508000290250912A02211531054105510519F1D6
:1050900080912C0390912D03A0912E03B0912F03AA
:1050A000280F391F4A1F5B1F2E153F054007510768
:1050B00090F4DD2081F49091240A8091250A9817BC
:1050C00051F4779A10920403769A10920503479A46
:1050D00010920603439A0E94FF371F910F91FF9091
:1050E000EF90DF9008950E945B5780E08ACF8F9207
:1050F0009F92AF92BF92CF92DF92EF92FF920F9367
:105100001F93CF93DF938DE690E0A9D8882309F011
:10511000EEC18091F90183FDEAC183E50E945C182C
:1051200080932202882329F482E50E945C18882358
:1051300089F090DAE0903903FF248701000F111FF6
:105140000856154F0E94DF6AF80171836083C7011A
:105150000E94745286E40E945C1880935305882351
:1051600049F078DA609338027093390280933A02FA
:1051700090933B0283E50E945C18882349F06ADA29
:105180006093340270933502809336029093370215
:1051900082E40E945C18882349F05CDA6093300254
:1051A0007093310280933202909333020FB6F894D9
:1051B0008090F10B9090F20BA090F30BB090F40B59
:1051C0000FBE20913903C22FD0E010923803CC0FCC
:1051D000DD1FFE01E856F54F60817181882777FD5C
:1051E0008095982F0E94126BCC0FDD1FC655D54FAE
:1051F000288139814A815B810E947E6C18161CF4DB
:1052000081E08093380310922903CC24CA94DC2CCB
:10521000760119C189EF9BE00E947E102196FE0164
:1052200064916623B9F7E0913903F0E0EE0FFF1FB8
:10523000EE0FFF1FE655F54F40815181628173816A
:1052400089EF9BE021E00E94DB66C7ECD4E005C05B
:1052500089EF9BE00E947E102196FE0164916623F7
:10526000B9F74091390350E0662757FD6095762FD6
:1052700089EF9BE00E94CA66C3ECD4E005C089EFC9
:105280009BE00E947E102196FE0164916623B9F78F
:10529000F7FE03C0C1ECD4E029C00FB6F89420910A
:1052A000F10B3091F20B4091F30B5091F40B0FBEC8
:1052B000C701B601605F784D8F4F9F4F621B730B24
:1052C000840B950B28EE33E040E050E00E94686EBE
:1052D00089EF9BE0BA01A9012AE000E00E943F6645
:1052E00009C089EF9BE00E947E102196FE01649127
:1052F0006623B9F789EF9BE06AE00E947E100FB643
:10530000F8948090F10B9090F20BA090F30BB0907A
:10531000F40B0FBEE8DEFFEFCF16FFEFDF06FFEF67
:10532000EF06FFEFFF0609F052C080913803E091CD
:105330003903882331F1F0E08F01000F111F000FB6
:10534000111F0655154FEE0FFF1FE856F54F6081F0
:105350007181882777FD8095982F0E94126B20E03D
:1053600030E040E85FE30E9496699B01AC01F801E0
:1053700060817181828193810E947E6C87FF58C019
:1053800062C0F0E08F01000F111F000F111F0655C2
:10539000154FEE0FFF1FE856F54F6081718188278A
:1053A00077FD8095982F0E94126B20E030E040E856
:1053B0005FE30E9497699B01AC01F80160817181F4
:1053C000828193810E94706A181694F53CC0F7FCA4
:1053D0003AC0E0913903F0E08F01000F111F000F78
:1053E000111F0655154FEE0FFF1FE856F54F608150
:1053F0007181882777FD8095982F0E94126B9B0101
:10540000AC01F80160817181828193810E9496696B
:105410000E94DF6A97FF07C090958095709561950F
:105420007F4F8F4F9F4F64307105810591055CF070
:105430000FB6F894C090F10BD090F20BE090F30B04
:10544000F090F40B0FBE809129038823A9F5FFEF9C
:10545000CF16FFEFDF06FFEFEF06FFEFFF0691F03D
:10546000F7FC2AC00FB6F8948091F10B9091F20BE3
:10547000A091F30BB091F40B0FBE8C199D098051D4
:105480009742D0F40FB6F8942091F10B3091F20BC3
:105490004091F30B5091F40B0FBED501C40188511C
:1054A0009C4FAF4FBF4F82179307A407B50708F073
:1054B00031CFCBECD4E0B3CE0FB6F8948091F10BA2
:1054C0009091F20BA091F30BB091F40B0FBE80936F
:1054D0002C0390932D03A0932E03B0932F0380935E
:1054E000300390933103A0933203B0933303DF91E1
:1054F000CF911F910F91FF90EF90DF90CF90BF90D1
:10550000AF909F908F900895AF92BF92CF92DF920D
:10551000EF92FF920F931F93CF93DF938091F90146
:1055200083FDFAC083E50E945C18809322028823E1
:1055300029F482E50E945C18882339F08BD80E94F8
:10554000DF6A7093A10A6093A00A0FB6F894E09006
:10555000F10BF090F20B0091F30B1091F40B0FBED6
:1055600010922903109238036091A00A7091A10A49
:10557000882777FD8095982F0E94126B2091BC0A96
:105580003091BD0A4091BE0A5091BF0A0E947E6CC4
:1055900018160CF073C081E0809338036FC00FB60B
:1055A000F894A090F10BB090F20BC090F30BD09058
:1055B000F40B0FBED801C70188519C4FAF4FBF4FAE
:1055C0008A159B05AC05BD0508F057C0E091260380
:1055D000F0E0EE0FFF1FEE0FFF1FE655F54FE080E6
:1055E000F18002811381C6EDD4E005C089EF9BE014
:1055F0000E947E102196FE0164916623B9F789EF1F
:105600009BE0B801A70122E00E94DB66C2EDD4E076
:1056100005C089EF9BE00E947E102196FE016491F7
:105620006623B9F74091260350E0662757FD609541
:10563000762F89EF9BE00E94CA66CEECD4E005C0CD
:1056400089EF9BE00E947E102196FE016491662303
:10565000B9F74091BC0A5091BD0A6091BE0A7091A1
:10566000BF0A89EF9BE021E00E94DB6689EF9BE0A7
:105670006AE00E947E108601750135DD8091380355
:105680008823E1F0809129038823C1F46091A00A66
:105690007091A10A882777FD8095982F0E94126B40
:1056A0002091BC0A3091BD0A4091BE0A5091BF0AB8
:1056B0000E947E6C18160CF472CF1BC06091A00A79
:1056C0007091A10A882777FD8095982F0E94126B10
:1056D0002091BC0A3091BD0A4091BE0A5091BF0A88
:1056E0000E94706A88232CF480912202882309F496
:1056F00056CF0FB6F8948091F10B9091F20BA091D8
:10570000F30BB091F40B0FBE80932C0390932D03F9
:10571000A0932E03B0932F03DF91CF911F910F9190
:10572000FF90EF90DF90CF90BF90AF900895FF92E1
:105730000F931F93CF93DF9380E50E945C1888231B
:1057400009F449C00E942A230E94DF6A8B0183E585
:105750000E945C18882319F4CFEFDFEF05C00E9488
:105760002A230E94DF6AEB01CE010196039798F588
:10577000EDE9F2E0808191818017910761F1329625
:1057800082E0E33DF807B1F717FD25C00E9480488D
:10579000F02E802F0E94B6608FEFCF3FD80729F000
:1057A000219759F0C0E0D0E00DC0E02FF0E00E945A
:1057B000DA61C0E0D0E0EE2329F4C1E0D0E002C01D
:1057C00092DC02C00F2D10E0F8010E94DA61F0E0D7
:1057D000EC17FD07A9F7DF91CF911F910F91FF9073
:1057E00008952F923F924F925F926F927F928F9285
:1057F0009F92AF92BF92CF92DF92EF92FF920F9360
:105800001F93DF93CF93CDB7DEB72C970FB6F894E5
:10581000DEBF0FBECDBF209158033091590380E603
:1058200090E0AC01249FC001259F900D349F900D06
:105830001124865A9C4F9093DB048093DA04809164
:10584000F90180FF20C007E213E006C089EF9BE06A
:105850000E947E100F5F1F4FF80164916623B1F71D
:105860006091DA047091DB0489EF9BE00E9470186C
:1058700089EF9BE06AE00E947E1005C03196F093AC
:10588000DB04E093DA04E091DA04F091DB04808138
:105890008032A1F38E3409F581818033F4F08A33AC
:1058A000E4F4329601C03196F093DB04E093DA041D
:1058B000E091DA04F091DB04808180538A3098F320
:1058C00005C03196F093DB04E093DA04E091DA044A
:1058D000F091DB0480818032A1F38091DA04909111
:1058E000DB046AE270E00E94D00DFC01009709F031
:1058F0001082E091DA04F091DB04F0808181805322
:105900008A3008F054C701C03196F093DD04E0936B
:10591000DC04E091DC04F091DD0480818032A1F7A9
:1059200005C03196F093DD04E093DC04E091DC04E3
:10593000F091DD0480818032A1F38091DA049091AE
:10594000DB049093DF048093DE040E9422218C010B
:10595000FDE4FF1609F4C4C144E5F41609F4B7C622
:1059600057E4F51609F023C78430910509F474C093
:105970008530910544F497FD0EC78091F8010230FF
:105980001105B4F01DC08A35910509F466C18B3547
:1059900091052CF48C31910509F0FDC6AAC08B3518
:1059A000910509F45DC18C35910509F0F4C65CC11F
:1059B000882309F4F0C60E94BE230E948917EBC613
:1059C000882309F4E8C60E94BE23FE01359688E0CC
:1059D000DF011D928A95E9F789E40E945C1888230B
:1059E00029F460E070E080E090E002C00E942A2389
:1059F0006D837E838F8398878AE40E945C18882356
:105A000029F460E070E080E090E002C00E942A2368
:105A100069877A878B879C8740E00230110509F4FB
:105A200041E088E493E0BE016B5F7F4F0E94651DFB
:105A30000FB6F8948091F10B9091F20BA091F30BBB
:105A4000B091F40B0FBE80932C0390932D03A09381
:105A50002E03B0932F039FC680E50E945C18882315
:105A600021F4EE24FF24870107C00E941F23AC010C
:105A7000CB01DA017C018D0183E50E945C1888234B
:105A800061F00E942A2320E030E04AE754E40E94BB
:105A9000506D0E94E46A7B018C010E9480480FB621
:105AA000F8948091F10B9091F20BA091F30BB091CF
:105AB000F40B0FBE80932C0390932D03A0932E0321
:105AC000B0932F03E80EF91E0A1F1B1F01C00BDB4A
:105AD0000FB6F8948091F10B9091F20BA091F30B1B
